{
  "_format": "hh-sol-artifact-1",
  "contractName": "DynamicSvgNft",
  "sourceName": "contracts/DynamitNFT.sol",
  "abi": [
    {
      "inputs": [
        {
          "internalType": "address",
          "name": "priceFeedAddress",
          "type": "address"
        },
        {
          "internalType": "string",
          "name": "lowSvg",
          "type": "string"
        },
        {
          "internalType": "string",
          "name": "highSvg",
          "type": "string"
        }
      ],
      "stateMutability": "nonpayable",
      "type": "constructor"
    },
    {
      "inputs": [],
      "name": "ERC721Metadata__URI_QueryFor_NonExistentToken",
      "type": "error"
    },
    {
      "anonymous": false,
      "inputs": [
        {
          "indexed": true,
          "internalType": "address",
          "name": "owner",
          "type": "address"
        },
        {
          "indexed": true,
          "internalType": "address",
          "name": "approved",
          "type": "address"
        },
        {
          "indexed": true,
          "internalType": "uint256",
          "name": "tokenId",
          "type": "uint256"
        }
      ],
      "name": "Approval",
      "type": "event"
    },
    {
      "anonymous": false,
      "inputs": [
        {
          "indexed": true,
          "internalType": "address",
          "name": "owner",
          "type": "address"
        },
        {
          "indexed": true,
          "internalType": "address",
          "name": "operator",
          "type": "address"
        },
        {
          "indexed": false,
          "internalType": "bool",
          "name": "approved",
          "type": "bool"
        }
      ],
      "name": "ApprovalForAll",
      "type": "event"
    },
    {
      "anonymous": false,
      "inputs": [
        {
          "indexed": true,
          "internalType": "uint256",
          "name": "tokenId",
          "type": "uint256"
        },
        {
          "indexed": false,
          "internalType": "int256",
          "name": "highValue",
          "type": "int256"
        }
      ],
      "name": "CreatedNFT",
      "type": "event"
    },
    {
      "anonymous": false,
      "inputs": [
        {
          "indexed": true,
          "internalType": "address",
          "name": "previousOwner",
          "type": "address"
        },
        {
          "indexed": true,
          "internalType": "address",
          "name": "newOwner",
          "type": "address"
        }
      ],
      "name": "OwnershipTransferred",
      "type": "event"
    },
    {
      "anonymous": false,
      "inputs": [
        {
          "indexed": true,
          "internalType": "address",
          "name": "from",
          "type": "address"
        },
        {
          "indexed": true,
          "internalType": "address",
          "name": "to",
          "type": "address"
        },
        {
          "indexed": true,
          "internalType": "uint256",
          "name": "tokenId",
          "type": "uint256"
        }
      ],
      "name": "Transfer",
      "type": "event"
    },
    {
      "inputs": [
        {
          "internalType": "address",
          "name": "to",
          "type": "address"
        },
        {
          "internalType": "uint256",
          "name": "tokenId",
          "type": "uint256"
        }
      ],
      "name": "approve",
      "outputs": [],
      "stateMutability": "nonpayable",
      "type": "function"
    },
    {
      "inputs": [
        {
          "internalType": "address",
          "name": "owner",
          "type": "address"
        }
      ],
      "name": "balanceOf",
      "outputs": [
        {
          "internalType": "uint256",
          "name": "",
          "type": "uint256"
        }
      ],
      "stateMutability": "view",
      "type": "function"
    },
    {
      "inputs": [
        {
          "internalType": "uint256",
          "name": "tokenId",
          "type": "uint256"
        }
      ],
      "name": "getApproved",
      "outputs": [
        {
          "internalType": "address",
          "name": "",
          "type": "address"
        }
      ],
      "stateMutability": "view",
      "type": "function"
    },
    {
      "inputs": [],
      "name": "getHighSVG",
      "outputs": [
        {
          "internalType": "string",
          "name": "",
          "type": "string"
        }
      ],
      "stateMutability": "view",
      "type": "function"
    },
    {
      "inputs": [],
      "name": "getLowSVG",
      "outputs": [
        {
          "internalType": "string",
          "name": "",
          "type": "string"
        }
      ],
      "stateMutability": "view",
      "type": "function"
    },
    {
      "inputs": [],
      "name": "getPriceFeed",
      "outputs": [
        {
          "internalType": "contract AggregatorV3Interface",
          "name": "",
          "type": "address"
        }
      ],
      "stateMutability": "view",
      "type": "function"
    },
    {
      "inputs": [],
      "name": "getTokenCounter",
      "outputs": [
        {
          "internalType": "uint256",
          "name": "",
          "type": "uint256"
        }
      ],
      "stateMutability": "view",
      "type": "function"
    },
    {
      "inputs": [
        {
          "internalType": "address",
          "name": "owner",
          "type": "address"
        },
        {
          "internalType": "address",
          "name": "operator",
          "type": "address"
        }
      ],
      "name": "isApprovedForAll",
      "outputs": [
        {
          "internalType": "bool",
          "name": "",
          "type": "bool"
        }
      ],
      "stateMutability": "view",
      "type": "function"
    },
    {
      "inputs": [
        {
          "internalType": "int256",
          "name": "highValue",
          "type": "int256"
        }
      ],
      "name": "mintNft",
      "outputs": [],
      "stateMutability": "nonpayable",
      "type": "function"
    },
    {
      "inputs": [],
      "name": "name",
      "outputs": [
        {
          "internalType": "string",
          "name": "",
          "type": "string"
        }
      ],
      "stateMutability": "view",
      "type": "function"
    },
    {
      "inputs": [],
      "name": "owner",
      "outputs": [
        {
          "internalType": "address",
          "name": "",
          "type": "address"
        }
      ],
      "stateMutability": "view",
      "type": "function"
    },
    {
      "inputs": [
        {
          "internalType": "uint256",
          "name": "tokenId",
          "type": "uint256"
        }
      ],
      "name": "ownerOf",
      "outputs": [
        {
          "internalType": "address",
          "name": "",
          "type": "address"
        }
      ],
      "stateMutability": "view",
      "type": "function"
    },
    {
      "inputs": [],
      "name": "renounceOwnership",
      "outputs": [],
      "stateMutability": "nonpayable",
      "type": "function"
    },
    {
      "inputs": [
        {
          "internalType": "address",
          "name": "from",
          "type": "address"
        },
        {
          "internalType": "address",
          "name": "to",
          "type": "address"
        },
        {
          "internalType": "uint256",
          "name": "tokenId",
          "type": "uint256"
        }
      ],
      "name": "safeTransferFrom",
      "outputs": [],
      "stateMutability": "nonpayable",
      "type": "function"
    },
    {
      "inputs": [
        {
          "internalType": "address",
          "name": "from",
          "type": "address"
        },
        {
          "internalType": "address",
          "name": "to",
          "type": "address"
        },
        {
          "internalType": "uint256",
          "name": "tokenId",
          "type": "uint256"
        },
        {
          "internalType": "bytes",
          "name": "data",
          "type": "bytes"
        }
      ],
      "name": "safeTransferFrom",
      "outputs": [],
      "stateMutability": "nonpayable",
      "type": "function"
    },
    {
      "inputs": [
        {
          "internalType": "address",
          "name": "operator",
          "type": "address"
        },
        {
          "internalType": "bool",
          "name": "approved",
          "type": "bool"
        }
      ],
      "name": "setApprovalForAll",
      "outputs": [],
      "stateMutability": "nonpayable",
      "type": "function"
    },
    {
      "inputs": [
        {
          "internalType": "bytes4",
          "name": "interfaceId",
          "type": "bytes4"
        }
      ],
      "name": "supportsInterface",
      "outputs": [
        {
          "internalType": "bool",
          "name": "",
          "type": "bool"
        }
      ],
      "stateMutability": "view",
      "type": "function"
    },
    {
      "inputs": [
        {
          "internalType": "string",
          "name": "svg",
          "type": "string"
        }
      ],
      "name": "svgToImageURI",
      "outputs": [
        {
          "internalType": "string",
          "name": "",
          "type": "string"
        }
      ],
      "stateMutability": "pure",
      "type": "function"
    },
    {
      "inputs": [],
      "name": "symbol",
      "outputs": [
        {
          "internalType": "string",
          "name": "",
          "type": "string"
        }
      ],
      "stateMutability": "view",
      "type": "function"
    },
    {
      "inputs": [
        {
          "internalType": "uint256",
          "name": "tokenId",
          "type": "uint256"
        }
      ],
      "name": "tokenURI",
      "outputs": [
        {
          "internalType": "string",
          "name": "",
          "type": "string"
        }
      ],
      "stateMutability": "view",
      "type": "function"
    },
    {
      "inputs": [
        {
          "internalType": "address",
          "name": "from",
          "type": "address"
        },
        {
          "internalType": "address",
          "name": "to",
          "type": "address"
        },
        {
          "internalType": "uint256",
          "name": "tokenId",
          "type": "uint256"
        }
      ],
      "name": "transferFrom",
      "outputs": [],
      "stateMutability": "nonpayable",
      "type": "function"
    },
    {
      "inputs": [
        {
          "internalType": "address",
          "name": "newOwner",
          "type": "address"
        }
      ],
      "name": "transferOwnership",
      "outputs": [],
      "stateMutability": "nonpayable",
      "type": "function"
    }
  ],
  "bytecode": "0x60a06040523480156200001157600080fd5b5060405162003f4738038062003f47833981810160405281019062000037919062000669565b6040518060400160405280600f81526020017f44796e616d696320535647204e465400000000000000000000000000000000008152506040518060400160405280600381526020017f44534e00000000000000000000000000000000000000000000000000000000008152508160009081620000b491906200094e565b508060019081620000c691906200094e565b505050620000e9620000dd6200017260201b60201c565b6200017a60201b60201c565b60006007819055508273ffffffffffffffffffffffffffffffffffffffff1660808173ffffffffffffffffffffffffffffffffffffffff168152505062000136826200024060201b60201c565b600890816200014691906200094e565b5062000158816200024060201b60201c565b600990816200016891906200094e565b5050505062000bd4565b600033905090565b6000600660009054906101000a900473ffffffffffffffffffffffffffffffffffffffff16905081600660006101000a81548173ffffffffffffffffffffffffffffffffffffffff021916908373ffffffffffffffffffffffffffffffffffffffff1602179055508173ffffffffffffffffffffffffffffffffffffffff168173ffffffffffffffffffffffffffffffffffffffff167f8be0079c531659141344cd1fd0a4f28419497f9722a3daafe3b4186f6b6457e060405160405180910390a35050565b606060006040518060400160405280601a81526020017f646174613a696d6167652f7376672b786d6c3b6261736536342c00000000000081525090506000620002b58460405160200162000295919062000a77565b604051602081830303815290604052620002e460201b62000ff61760201c565b90508181604051602001620002cc92919062000a90565b60405160208183030381529060405292505050919050565b6060600082510362000308576040518060200160405280600081525090506200046c565b600060405180606001604052806040815260200162003f0760409139905060006003600285516200033a919062000ae7565b62000346919062000b51565b600462000354919062000b89565b9050600060208262000367919062000ae7565b67ffffffffffffffff81111562000383576200038262000505565b5b6040519080825280601f01601f191660200182016040528015620003b65781602001600182028036833780820191505090505b509050818152600183018586518101602084015b8183101562000427576003830192508251603f8160121c168501518253600182019150603f81600c1c168501518253600182019150603f8160061c168501518253600182019150603f8116850151825360018201915050620003ca565b600389510660018114620004445760028114620004555762000460565b613d3d60f01b600283035262000460565b603d60f81b60018303525b50505050508093505050505b919050565b6000604051905090565b600080fd5b600080fd5b600073ffffffffffffffffffffffffffffffffffffffff82169050919050565b6000620004b28262000485565b9050919050565b620004c481620004a5565b8114620004d057600080fd5b50565b600081519050620004e481620004b9565b92915050565b600080fd5b600080fd5b6000601f19601f8301169050919050565b7f4e487b7100000000000000000000000000000000000000000000000000000000600052604160045260246000fd5b6200053f82620004f4565b810181811067ffffffffffffffff8211171562000561576200056062000505565b5b80604052505050565b60006200057662000471565b905062000584828262000534565b919050565b600067ffffffffffffffff821115620005a757620005a662000505565b5b620005b282620004f4565b9050602081019050919050565b60005b83811015620005df578082015181840152602081019050620005c2565b60008484015250505050565b600062000602620005fc8462000589565b6200056a565b905082815260208101848484011115620006215762000620620004ef565b5b6200062e848285620005bf565b509392505050565b600082601f8301126200064e576200064d620004ea565b5b815162000660848260208601620005eb565b91505092915050565b6000806000606084860312156200068557620006846200047b565b5b60006200069586828701620004d3565b935050602084015167ffffffffffffffff811115620006b957620006b862000480565b5b620006c78682870162000636565b925050604084015167ffffffffffffffff811115620006eb57620006ea62000480565b5b620006f98682870162000636565b9150509250925092565b600081519050919050565b7f4e487b7100000000000000000000000000000000000000000000000000000000600052602260045260246000fd5b600060028204905060018216806200075657607f821691505b6020821081036200076c576200076b6200070e565b5b50919050565b60008190508160005260206000209050919050565b60006020601f8301049050919050565b600082821b905092915050565b600060088302620007d67fffffffffffffffffffffffffffffffffffffffffffffffffffffffffffffffff8262000797565b620007e2868362000797565b95508019841693508086168417925050509392505050565b6000819050919050565b6000819050919050565b60006200082f620008296200082384620007fa565b62000804565b620007fa565b9050919050565b6000819050919050565b6200084b836200080e565b620008636200085a8262000836565b848454620007a4565b825550505050565b600090565b6200087a6200086b565b6200088781848462000840565b505050565b5b81811015620008af57620008a360008262000870565b6001810190506200088d565b5050565b601f821115620008fe57620008c88162000772565b620008d38462000787565b81016020851015620008e3578190505b620008fb620008f28562000787565b8301826200088c565b50505b505050565b600082821c905092915050565b6000620009236000198460080262000903565b1980831691505092915050565b60006200093e838362000910565b9150826002028217905092915050565b620009598262000703565b67ffffffffffffffff81111562000975576200097462000505565b5b6200098182546200073d565b6200098e828285620008b3565b600060209050601f831160018114620009c65760008415620009b1578287015190505b620009bd858262000930565b86555062000a2d565b601f198416620009d68662000772565b60005b8281101562000a0057848901518255600182019150602085019450602081019050620009d9565b8683101562000a20578489015162000a1c601f89168262000910565b8355505b6001600288020188555050505b505050505050565b600081905092915050565b600062000a4d8262000703565b62000a59818562000a35565b935062000a6b818560208601620005bf565b80840191505092915050565b600062000a85828462000a40565b915081905092915050565b600062000a9e828562000a40565b915062000aac828462000a40565b91508190509392505050565b7f4e487b7100000000000000000000000000000000000000000000000000000000600052601160045260246000fd5b600062000af482620007fa565b915062000b0183620007fa565b925082820190508082111562000b1c5762000b1b62000ab8565b5b92915050565b7f4e487b7100000000000000000000000000000000000000000000000000000000600052601260045260246000fd5b600062000b5e82620007fa565b915062000b6b83620007fa565b92508262000b7e5762000b7d62000b22565b5b828204905092915050565b600062000b9682620007fa565b915062000ba383620007fa565b925082820262000bb381620007fa565b9150828204841483151762000bcd5762000bcc62000ab8565b5b5092915050565b60805161331062000bf760003960008181610b400152610c2101526133106000f3fe608060405234801561001057600080fd5b50600436106101425760003560e01c8063715018a6116100b8578063a22cb4651161007c578063a22cb46514610365578063b88d4fde14610381578063c87b56dd1461039d578063e985e9c5146103cd578063ed28a122146103fd578063f2fde38b1461041b57610142565b8063715018a6146102e357806376f6056b146102ed5780638da5cb5b1461030b57806395d89b41146103295780639e87a5cd1461034757610142565b806323b872dd1161010a57806323b872dd146101fd57806330d871c61461021957806342842e0e146102495780636352211e146102655780636e02007d1461029557806370a08231146102b357610142565b806301ffc9a71461014757806306fdde0314610177578063081812fc14610195578063095ea7b3146101c55780631e930812146101e1575b600080fd5b610161600480360381019061015c9190611ef1565b610437565b60405161016e9190611f39565b60405180910390f35b61017f610519565b60405161018c9190611fe4565b60405180910390f35b6101af60048036038101906101aa919061203c565b6105ab565b6040516101bc91906120aa565b60405180910390f35b6101df60048036038101906101da91906120f1565b6105f1565b005b6101fb60048036038101906101f69190612167565b610708565b005b61021760048036038101906102129190612194565b610780565b005b610233600480360381019061022e919061231c565b6107e0565b6040516102409190611fe4565b60405180910390f35b610263600480360381019061025e9190612194565b610873565b005b61027f600480360381019061027a919061203c565b610893565b60405161028c91906120aa565b60405180910390f35b61029d610919565b6040516102aa9190612374565b60405180910390f35b6102cd60048036038101906102c8919061238f565b610923565b6040516102da9190612374565b60405180910390f35b6102eb6109da565b005b6102f56109ee565b6040516103029190611fe4565b60405180910390f35b610313610a80565b60405161032091906120aa565b60405180910390f35b610331610aaa565b60405161033e9190611fe4565b60405180910390f35b61034f610b3c565b60405161035c919061241b565b60405180910390f35b61037f600480360381019061037a9190612462565b610b64565b005b61039b60048036038101906103969190612543565b610b7a565b005b6103b760048036038101906103b2919061203c565b610bdc565b6040516103c49190611fe4565b60405180910390f35b6103e760048036038101906103e291906125c6565b610e4d565b6040516103f49190611f39565b60405180910390f35b610405610ee1565b6040516104129190611fe4565b60405180910390f35b6104356004803603810190610430919061238f565b610f73565b005b60007f80ac58cd000000000000000000000000000000000000000000000000000000007bffffffffffffffffffffffffffffffffffffffffffffffffffffffff1916827bffffffffffffffffffffffffffffffffffffffffffffffffffffffff1916148061050257507f5b5e139f000000000000000000000000000000000000000000000000000000007bffffffffffffffffffffffffffffffffffffffffffffffffffffffff1916827bffffffffffffffffffffffffffffffffffffffffffffffffffffffff1916145b8061051257506105118261116e565b5b9050919050565b60606000805461052890612635565b80601f016020809104026020016040519081016040528092919081815260200182805461055490612635565b80156105a15780601f10610576576101008083540402835291602001916105a1565b820191906000526020600020905b81548152906001019060200180831161058457829003601f168201915b5050505050905090565b60006105b6826111d8565b6004600083815260200190815260200160002060009054906101000a900473ffffffffffffffffffffffffffffffffffffffff169050919050565b60006105fc82610893565b90508073ffffffffffffffffffffffffffffffffffffffff168373ffffffffffffffffffffffffffffffffffffffff160361066c576040517f08c379a0000000000000000000000000000000000000000000000000000000008152600401610663906126d8565b60405180910390fd5b8073ffffffffffffffffffffffffffffffffffffffff1661068b611223565b73ffffffffffffffffffffffffffffffffffffffff1614806106ba57506106b9816106b4611223565b610e4d565b5b6106f9576040517f08c379a00000000000000000000000000000000000000000000000000000000081526004016106f09061276a565b60405180910390fd5b610703838361122b565b505050565b80600a600060075481526020019081526020016000208190555061072e336007546112e4565b600160075461073d91906127b9565b6007819055506007547f882d3b5a729a8bb95cf6c0083c99b42ecd9637123d4425bd7b768877fd8af8b08260405161077591906127fc565b60405180910390a250565b61079161078b611223565b82611302565b6107d0576040517f08c379a00000000000000000000000000000000000000000000000000000000081526004016107c790612889565b60405180910390fd5b6107db838383611397565b505050565b606060006040518060400160405280601a81526020017f646174613a696d6167652f7376672b786d6c3b6261736536342c000000000000815250905060006108468460405160200161083291906128e5565b604051602081830303815290604052610ff6565b9050818160405160200161085b9291906128fc565b60405160208183030381529060405292505050919050565b61088e83838360405180602001604052806000815250610b7a565b505050565b60008061089f83611690565b9050600073ffffffffffffffffffffffffffffffffffffffff168173ffffffffffffffffffffffffffffffffffffffff1603610910576040517f08c379a00000000000000000000000000000000000000000000000000000000081526004016109079061296c565b60405180910390fd5b80915050919050565b6000600754905090565b60008073ffffffffffffffffffffffffffffffffffffffff168273ffffffffffffffffffffffffffffffffffffffff1603610993576040517f08c379a000000000000000000000000000000000000000000000000000000000815260040161098a906129fe565b60405180910390fd5b600360008373ffffffffffffffffffffffffffffffffffffffff1673ffffffffffffffffffffffffffffffffffffffff168152602001908152602001600020549050919050565b6109e26116cd565b6109ec600061174b565b565b6060600980546109fd90612635565b80601f0160208091040260200160405190810160405280929190818152602001828054610a2990612635565b8015610a765780601f10610a4b57610100808354040283529160200191610a76565b820191906000526020600020905b815481529060010190602001808311610a5957829003601f168201915b5050505050905090565b6000600660009054906101000a900473ffffffffffffffffffffffffffffffffffffffff16905090565b606060018054610ab990612635565b80601f0160208091040260200160405190810160405280929190818152602001828054610ae590612635565b8015610b325780601f10610b0757610100808354040283529160200191610b32565b820191906000526020600020905b815481529060010190602001808311610b1557829003601f168201915b5050505050905090565b60007f0000000000000000000000000000000000000000000000000000000000000000905090565b610b76610b6f611223565b8383611811565b5050565b610b8b610b85611223565b83611302565b610bca576040517f08c379a0000000000000000000000000000000000000000000000000000000008152600401610bc190612889565b60405180910390fd5b610bd68484848461197d565b50505050565b6060610be7826119d9565b610c1d576040517f6df5edae00000000000000000000000000000000000000000000000000000000815260040160405180910390fd5b60007f000000000000000000000000000000000000000000000000000000000000000073ffffffffffffffffffffffffffffffffffffffff1663feaf968c6040518163ffffffff1660e01b815260040160a060405180830381865afa158015610c8a573d6000803e3d6000fd5b505050506040513d601f19601f82011682018060405250810190610cae9190612a8a565b505050915050600060088054610cc390612635565b80601f0160208091040260200160405190810160405280929190818152602001828054610cef90612635565b8015610d3c5780601f10610d1157610100808354040283529160200191610d3c565b820191906000526020600020905b815481529060010190602001808311610d1f57829003601f168201915b50505050509050600a6000858152602001908152602001600020548212610deb5760098054610d6a90612635565b80601f0160208091040260200160405190810160405280929190818152602001828054610d9690612635565b8015610de35780601f10610db857610100808354040283529160200191610de3565b820191906000526020600020905b815481529060010190602001808311610dc657829003601f168201915b505050505090505b610df3611a1a565b610e24610dfe610519565b83604051602001610e10929190612ccd565b604051602081830303815290604052610ff6565b604051602001610e359291906128fc565b60405160208183030381529060405292505050919050565b6000600560008473ffffffffffffffffffffffffffffffffffffffff1673ffffffffffffffffffffffffffffffffffffffff16815260200190815260200160002060008373ffffffffffffffffffffffffffffffffffffffff1673ffffffffffffffffffffffffffffffffffffffff16815260200190815260200160002060009054906101000a900460ff16905092915050565b606060088054610ef090612635565b80601f0160208091040260200160405190810160405280929190818152602001828054610f1c90612635565b8015610f695780601f10610f3e57610100808354040283529160200191610f69565b820191906000526020600020905b815481529060010190602001808311610f4c57829003601f168201915b5050505050905090565b610f7b6116cd565b600073ffffffffffffffffffffffffffffffffffffffff168173ffffffffffffffffffffffffffffffffffffffff1603610fea576040517f08c379a0000000000000000000000000000000000000000000000000000000008152600401610fe190612d8f565b60405180910390fd5b610ff38161174b565b50565b6060600082510361101857604051806020016040528060008152509050611169565b600060405180606001604052806040815260200161329b604091399050600060036002855161104791906127b9565b6110519190612dde565b600461105d9190612e0f565b9050600060208261106e91906127b9565b67ffffffffffffffff811115611087576110866121f1565b5b6040519080825280601f01601f1916602001820160405280156110b95781602001600182028036833780820191505090505b509050818152600183018586518101602084015b81831015611128576003830192508251603f8160121c168501518253600182019150603f81600c1c168501518253600182019150603f8160061c168501518253600182019150603f81168501518253600182019150506110cd565b60038951066001811461114257600281146111525761115d565b613d3d60f01b600283035261115d565b603d60f81b60018303525b50505050508093505050505b919050565b60007f01ffc9a7000000000000000000000000000000000000000000000000000000007bffffffffffffffffffffffffffffffffffffffffffffffffffffffff1916827bffffffffffffffffffffffffffffffffffffffffffffffffffffffff1916149050919050565b6111e1816119d9565b611220576040517f08c379a00000000000000000000000000000000000000000000000000000000081526004016112179061296c565b60405180910390fd5b50565b600033905090565b816004600083815260200190815260200160002060006101000a81548173ffffffffffffffffffffffffffffffffffffffff021916908373ffffffffffffffffffffffffffffffffffffffff160217905550808273ffffffffffffffffffffffffffffffffffffffff1661129e83610893565b73ffffffffffffffffffffffffffffffffffffffff167f8c5be1e5ebec7d5bd14f71427d1e84f3dd0314c0f7b2291e5b200ac8c7c3b92560405160405180910390a45050565b6112fe828260405180602001604052806000815250611a57565b5050565b60008061130e83610893565b90508073ffffffffffffffffffffffffffffffffffffffff168473ffffffffffffffffffffffffffffffffffffffff161480611350575061134f8185610e4d565b5b8061138e57508373ffffffffffffffffffffffffffffffffffffffff16611376846105ab565b73ffffffffffffffffffffffffffffffffffffffff16145b91505092915050565b8273ffffffffffffffffffffffffffffffffffffffff166113b782610893565b73ffffffffffffffffffffffffffffffffffffffff161461140d576040517f08c379a000000000000000000000000000000000000000000000000000000000815260040161140490612ec3565b60405180910390fd5b600073ffffffffffffffffffffffffffffffffffffffff168273ffffffffffffffffffffffffffffffffffffffff160361147c576040517f08c379a000000000000000000000000000000000000000000000000000000000815260040161147390612f55565b60405180910390fd5b6114898383836001611ab2565b8273ffffffffffffffffffffffffffffffffffffffff166114a982610893565b73ffffffffffffffffffffffffffffffffffffffff16146114ff576040517f08c379a00000000000000000000000000000000000000000000000000000000081526004016114f690612ec3565b60405180910390fd5b6004600082815260200190815260200160002060006101000a81549073ffffffffffffffffffffffffffffffffffffffff02191690556001600360008573ffffffffffffffffffffffffffffffffffffffff1673ffffffffffffffffffffffffffffffffffffffff168152602001908152602001600020600082825403925050819055506001600360008473ffffffffffffffffffffffffffffffffffffffff1673ffffffffffffffffffffffffffffffffffffffff16815260200190815260200160002060008282540192505081905550816002600083815260200190815260200160002060006101000a81548173ffffffffffffffffffffffffffffffffffffffff021916908373ffffffffffffffffffffffffffffffffffffffff160217905550808273ffffffffffffffffffffffffffffffffffffffff168473ffffffffffffffffffffffffffffffffffffffff167fddf252ad1be2c89b69c2b068fc378daa952ba7f163c4a11628f55a4df523b3ef60405160405180910390a461168b8383836001611ab8565b505050565b60006002600083815260200190815260200160002060009054906101000a900473ffffffffffffffffffffffffffffffffffffffff169050919050565b6116d5611223565b73ffffffffffffffffffffffffffffffffffffffff166116f3610a80565b73ffffffffffffffffffffffffffffffffffffffff1614611749576040517f08c379a000000000000000000000000000000000000000000000000000000000815260040161174090612fc1565b60405180910390fd5b565b6000600660009054906101000a900473ffffffffffffffffffffffffffffffffffffffff16905081600660006101000a81548173ffffffffffffffffffffffffffffffffffffffff021916908373ffffffffffffffffffffffffffffffffffffffff1602179055508173ffffffffffffffffffffffffffffffffffffffff168173ffffffffffffffffffffffffffffffffffffffff167f8be0079c531659141344cd1fd0a4f28419497f9722a3daafe3b4186f6b6457e060405160405180910390a35050565b8173ffffffffffffffffffffffffffffffffffffffff168373ffffffffffffffffffffffffffffffffffffffff160361187f576040517f08c379a00000000000000000000000000000000000000000000000000000000081526004016118769061302d565b60405180910390fd5b80600560008573ffffffffffffffffffffffffffffffffffffffff1673ffffffffffffffffffffffffffffffffffffffff16815260200190815260200160002060008473ffffffffffffffffffffffffffffffffffffffff1673ffffffffffffffffffffffffffffffffffffffff16815260200190815260200160002060006101000a81548160ff0219169083151502179055508173ffffffffffffffffffffffffffffffffffffffff168373ffffffffffffffffffffffffffffffffffffffff167f17307eab39ab6107e8899845ad3d59bd9653f200f220920489ca2b5937696c31836040516119709190611f39565b60405180910390a3505050565b611988848484611397565b61199484848484611abe565b6119d3576040517f08c379a00000000000000000000000000000000000000000000000000000000081526004016119ca906130bf565b60405180910390fd5b50505050565b60008073ffffffffffffffffffffffffffffffffffffffff166119fb83611690565b73ffffffffffffffffffffffffffffffffffffffff1614159050919050565b60606040518060400160405280601d81526020017f646174613a6170706c69636174696f6e2f6a736f6e3b6261736536342c000000815250905090565b611a618383611c45565b611a6e6000848484611abe565b611aad576040517f08c379a0000000000000000000000000000000000000000000000000000000008152600401611aa4906130bf565b60405180910390fd5b505050565b50505050565b50505050565b6000611adf8473ffffffffffffffffffffffffffffffffffffffff16611e62565b15611c38578373ffffffffffffffffffffffffffffffffffffffff1663150b7a02611b08611223565b8786866040518563ffffffff1660e01b8152600401611b2a9493929190613134565b6020604051808303816000875af1925050508015611b6657506040513d601f19601f82011682018060405250810190611b639190613195565b60015b611be8573d8060008114611b96576040519150601f19603f3d011682016040523d82523d6000602084013e611b9b565b606091505b506000815103611be0576040517f08c379a0000000000000000000000000000000000000000000000000000000008152600401611bd7906130bf565b60405180910390fd5b805181602001fd5b63150b7a0260e01b7bffffffffffffffffffffffffffffffffffffffffffffffffffffffff1916817bffffffffffffffffffffffffffffffffffffffffffffffffffffffff191614915050611c3d565b600190505b949350505050565b600073ffffffffffffffffffffffffffffffffffffffff168273ffffffffffffffffffffffffffffffffffffffff1603611cb4576040517f08c379a0000000000000000000000000000000000000000000000000000000008152600401611cab9061320e565b60405180910390fd5b611cbd816119d9565b15611cfd576040517f08c379a0000000000000000000000000000000000000000000000000000000008152600401611cf49061327a565b60405180910390fd5b611d0b600083836001611ab2565b611d14816119d9565b15611d54576040517f08c379a0000000000000000000000000000000000000000000000000000000008152600401611d4b9061327a565b60405180910390fd5b6001600360008473ffffffffffffffffffffffffffffffffffffffff1673ffffffffffffffffffffffffffffffffffffffff16815260200190815260200160002060008282540192505081905550816002600083815260200190815260200160002060006101000a81548173ffffffffffffffffffffffffffffffffffffffff021916908373ffffffffffffffffffffffffffffffffffffffff160217905550808273ffffffffffffffffffffffffffffffffffffffff16600073ffffffffffffffffffffffffffffffffffffffff167fddf252ad1be2c89b69c2b068fc378daa952ba7f163c4a11628f55a4df523b3ef60405160405180910390a4611e5e600083836001611ab8565b5050565b6000808273ffffffffffffffffffffffffffffffffffffffff163b119050919050565b6000604051905090565b600080fd5b600080fd5b60007fffffffff0000000000000000000000000000000000000000000000000000000082169050919050565b611ece81611e99565b8114611ed957600080fd5b50565b600081359050611eeb81611ec5565b92915050565b600060208284031215611f0757611f06611e8f565b5b6000611f1584828501611edc565b91505092915050565b60008115159050919050565b611f3381611f1e565b82525050565b6000602082019050611f4e6000830184611f2a565b92915050565b600081519050919050565b600082825260208201905092915050565b60005b83811015611f8e578082015181840152602081019050611f73565b60008484015250505050565b6000601f19601f8301169050919050565b6000611fb682611f54565b611fc08185611f5f565b9350611fd0818560208601611f70565b611fd981611f9a565b840191505092915050565b60006020820190508181036000830152611ffe8184611fab565b905092915050565b6000819050919050565b61201981612006565b811461202457600080fd5b50565b60008135905061203681612010565b92915050565b60006020828403121561205257612051611e8f565b5b600061206084828501612027565b91505092915050565b600073ffffffffffffffffffffffffffffffffffffffff82169050919050565b600061209482612069565b9050919050565b6120a481612089565b82525050565b60006020820190506120bf600083018461209b565b92915050565b6120ce81612089565b81146120d957600080fd5b50565b6000813590506120eb816120c5565b92915050565b6000806040838503121561210857612107611e8f565b5b6000612116858286016120dc565b925050602061212785828601612027565b9150509250929050565b6000819050919050565b61214481612131565b811461214f57600080fd5b50565b6000813590506121618161213b565b92915050565b60006020828403121561217d5761217c611e8f565b5b600061218b84828501612152565b91505092915050565b6000806000606084860312156121ad576121ac611e8f565b5b60006121bb868287016120dc565b93505060206121cc868287016120dc565b92505060406121dd86828701612027565b9150509250925092565b600080fd5b600080fd5b7f4e487b7100000000000000000000000000000000000000000000000000000000600052604160045260246000fd5b61222982611f9a565b810181811067ffffffffffffffff82111715612248576122476121f1565b5b80604052505050565b600061225b611e85565b90506122678282612220565b919050565b600067ffffffffffffffff821115612287576122866121f1565b5b61229082611f9a565b9050602081019050919050565b82818337600083830152505050565b60006122bf6122ba8461226c565b612251565b9050828152602081018484840111156122db576122da6121ec565b5b6122e684828561229d565b509392505050565b600082601f830112612303576123026121e7565b5b81356123138482602086016122ac565b91505092915050565b60006020828403121561233257612331611e8f565b5b600082013567ffffffffffffffff8111156123505761234f611e94565b5b61235c848285016122ee565b91505092915050565b61236e81612006565b82525050565b60006020820190506123896000830184612365565b92915050565b6000602082840312156123a5576123a4611e8f565b5b60006123b3848285016120dc565b91505092915050565b6000819050919050565b60006123e16123dc6123d784612069565b6123bc565b612069565b9050919050565b60006123f3826123c6565b9050919050565b6000612405826123e8565b9050919050565b612415816123fa565b82525050565b6000602082019050612430600083018461240c565b92915050565b61243f81611f1e565b811461244a57600080fd5b50565b60008135905061245c81612436565b92915050565b6000806040838503121561247957612478611e8f565b5b6000612487858286016120dc565b92505060206124988582860161244d565b9150509250929050565b600067ffffffffffffffff8211156124bd576124bc6121f1565b5b6124c682611f9a565b9050602081019050919050565b60006124e66124e1846124a2565b612251565b905082815260208101848484011115612502576125016121ec565b5b61250d84828561229d565b509392505050565b600082601f83011261252a576125296121e7565b5b813561253a8482602086016124d3565b91505092915050565b6000806000806080858703121561255d5761255c611e8f565b5b600061256b878288016120dc565b945050602061257c878288016120dc565b935050604061258d87828801612027565b925050606085013567ffffffffffffffff8111156125ae576125ad611e94565b5b6125ba87828801612515565b91505092959194509250565b600080604083850312156125dd576125dc611e8f565b5b60006125eb858286016120dc565b92505060206125fc858286016120dc565b9150509250929050565b7f4e487b7100000000000000000000000000000000000000000000000000000000600052602260045260246000fd5b6000600282049050600182168061264d57607f821691505b6020821081036126605761265f612606565b5b50919050565b7f4552433732313a20617070726f76616c20746f2063757272656e74206f776e6560008201527f7200000000000000000000000000000000000000000000000000000000000000602082015250565b60006126c2602183611f5f565b91506126cd82612666565b604082019050919050565b600060208201905081810360008301526126f1816126b5565b9050919050565b7f4552433732313a20617070726f76652063616c6c6572206973206e6f7420746f60008201527f6b656e206f776e6572206f7220617070726f76656420666f7220616c6c000000602082015250565b6000612754603d83611f5f565b915061275f826126f8565b604082019050919050565b6000602082019050818103600083015261278381612747565b9050919050565b7f4e487b7100000000000000000000000000000000000000000000000000000000600052601160045260246000fd5b60006127c482612006565b91506127cf83612006565b92508282019050808211156127e7576127e661278a565b5b92915050565b6127f681612131565b82525050565b600060208201905061281160008301846127ed565b92915050565b7f4552433732313a2063616c6c6572206973206e6f7420746f6b656e206f776e6560008201527f72206f7220617070726f76656400000000000000000000000000000000000000602082015250565b6000612873602d83611f5f565b915061287e82612817565b604082019050919050565b600060208201905081810360008301526128a281612866565b9050919050565b600081905092915050565b60006128bf82611f54565b6128c981856128a9565b93506128d9818560208601611f70565b80840191505092915050565b60006128f182846128b4565b915081905092915050565b600061290882856128b4565b915061291482846128b4565b91508190509392505050565b7f4552433732313a20696e76616c696420746f6b656e2049440000000000000000600082015250565b6000612956601883611f5f565b915061296182612920565b602082019050919050565b6000602082019050818103600083015261298581612949565b9050919050565b7f4552433732313a2061646472657373207a65726f206973206e6f74206120766160008201527f6c6964206f776e65720000000000000000000000000000000000000000000000602082015250565b60006129e8602983611f5f565b91506129f38261298c565b604082019050919050565b60006020820190508181036000830152612a17816129db565b9050919050565b600069ffffffffffffffffffff82169050919050565b612a3d81612a1e565b8114612a4857600080fd5b50565b600081519050612a5a81612a34565b92915050565b600081519050612a6f8161213b565b92915050565b600081519050612a8481612010565b92915050565b600080600080600060a08688031215612aa657612aa5611e8f565b5b6000612ab488828901612a4b565b9550506020612ac588828901612a60565b9450506040612ad688828901612a75565b9350506060612ae788828901612a75565b9250506080612af888828901612a4b565b9150509295509295909350565b7f7b226e616d65223a220000000000000000000000000000000000000000000000600082015250565b6000612b3b6009836128a9565b9150612b4682612b05565b600982019050919050565b7f222c20226465736372697074696f6e223a22416e204e4654207468617420636860008201527f616e676573206261736564206f6e2074686520436861696e6c696e6b2046656560208201527f64222c2000000000000000000000000000000000000000000000000000000000604082015250565b6000612bd36044836128a9565b9150612bde82612b51565b604482019050919050565b7f2261747472696275746573223a205b7b2274726169745f74797065223a20226360008201527f6f6f6c6e657373222c202276616c7565223a203130307d5d2c2022696d61676560208201527f223a220000000000000000000000000000000000000000000000000000000000604082015250565b6000612c6b6043836128a9565b9150612c7682612be9565b604382019050919050565b7f227d000000000000000000000000000000000000000000000000000000000000600082015250565b6000612cb76002836128a9565b9150612cc282612c81565b600282019050919050565b6000612cd882612b2e565b9150612ce482856128b4565b9150612cef82612bc6565b9150612cfa82612c5e565b9150612d0682846128b4565b9150612d1182612caa565b91508190509392505050565b7f4f776e61626c653a206e6577206f776e657220697320746865207a65726f206160008201527f6464726573730000000000000000000000000000000000000000000000000000602082015250565b6000612d79602683611f5f565b9150612d8482612d1d565b604082019050919050565b60006020820190508181036000830152612da881612d6c565b9050919050565b7f4e487b7100000000000000000000000000000000000000000000000000000000600052601260045260246000fd5b6000612de982612006565b9150612df483612006565b925082612e0457612e03612daf565b5b828204905092915050565b6000612e1a82612006565b9150612e2583612006565b9250828202612e3381612006565b91508282048414831517612e4a57612e4961278a565b5b5092915050565b7f4552433732313a207472616e736665722066726f6d20696e636f72726563742060008201527f6f776e6572000000000000000000000000000000000000000000000000000000602082015250565b6000612ead602583611f5f565b9150612eb882612e51565b604082019050919050565b60006020820190508181036000830152612edc81612ea0565b9050919050565b7f4552433732313a207472616e7366657220746f20746865207a65726f2061646460008201527f7265737300000000000000000000000000000000000000000000000000000000602082015250565b6000612f3f602483611f5f565b9150612f4a82612ee3565b604082019050919050565b60006020820190508181036000830152612f6e81612f32565b9050919050565b7f4f776e61626c653a2063616c6c6572206973206e6f7420746865206f776e6572600082015250565b6000612fab602083611f5f565b9150612fb682612f75565b602082019050919050565b60006020820190508181036000830152612fda81612f9e565b9050919050565b7f4552433732313a20617070726f766520746f2063616c6c657200000000000000600082015250565b6000613017601983611f5f565b915061302282612fe1565b602082019050919050565b600060208201905081810360008301526130468161300a565b9050919050565b7f4552433732313a207472616e7366657220746f206e6f6e20455243373231526560008201527f63656976657220696d706c656d656e7465720000000000000000000000000000602082015250565b60006130a9603283611f5f565b91506130b48261304d565b604082019050919050565b600060208201905081810360008301526130d88161309c565b9050919050565b600081519050919050565b600082825260208201905092915050565b6000613106826130df565b61311081856130ea565b9350613120818560208601611f70565b61312981611f9a565b840191505092915050565b6000608082019050613149600083018761209b565b613156602083018661209b565b6131636040830185612365565b818103606083015261317581846130fb565b905095945050505050565b60008151905061318f81611ec5565b92915050565b6000602082840312156131ab576131aa611e8f565b5b60006131b984828501613180565b91505092915050565b7f4552433732313a206d696e7420746f20746865207a65726f2061646472657373600082015250565b60006131f8602083611f5f565b9150613203826131c2565b602082019050919050565b60006020820190508181036000830152613227816131eb565b9050919050565b7f4552433732313a20746f6b656e20616c7265616479206d696e74656400000000600082015250565b6000613264601c83611f5f565b915061326f8261322e565b602082019050919050565b6000602082019050818103600083015261329381613257565b905091905056fe4142434445464748494a4b4c4d4e4f505152535455565758595a6162636465666768696a6b6c6d6e6f707172737475767778797a303132333435363738392b2fa264697066735822122022a6f85ae2288798224155484930b8bfd96e30b0a87729adbe7d2d2e0dd9991864736f6c634300081200334142434445464748494a4b4c4d4e4f505152535455565758595a6162636465666768696a6b6c6d6e6f707172737475767778797a303132333435363738392b2f",
  "linkReferences": {},
  "deployedLinkReferences": {}
}